:1000000000800010113D0000413D0000433D000014
:10001000453D0000473D0000493D00000000000054
:10002000000000000000000000000000453C00004F
:100030004D3D000000000000AF3C0000E53C00002A
:10004000533D0000533D0000533D0000533D000070
:10005000533D0000533D0000533D0000533D000060
:10006000533D0000533D0000533D0000533D000050
:10007000533D0000533D0000533D0000533D000040
:10008000533D0000533D0000533D0000533D000030
:10009000533D0000533D0000533D0000533D000020
:1000A000533D0000533D0000533D0000533D000010
:1000B000533D0000533D0000533D0000533D000000
:1000C000533D0000533D0000533D000010B5054C6A
:1000D000237833B9044B13B10448AFF300800123F4
:1000E000237010BDC802001000000000B08F000097
:1000F0000C4B43B10C4810B50C49AFF300800C48D1
:10010000036823B910BD0A48036833B97047094B27
:10011000002BF7D0BDE810401847064B002BF5D058
:10012000184700BF00000000B08F0000CC02001094
:10013000C8020010000000000368DB69184703686C
:100140005B69184703689B6A1847704770474FF010
:10015000FF307047C0F8A810C0F8AC20704700000E
:10016000F8B504460F46124D00F144060911304619
:1001700002F082FF284603F0AFFAE36B226B2846B9
:100180001A6003F0A9FAA36B226B39461A60304655
:1001900002F072FF284603F09FFAE36B226B2846B9
:1001A0001A6003F099FAA36B226B1A60F8BD00BFC6
:1001B000ACC52738426A83691360FFF7D1BF0000DE
:1001C00010B501210446FFF7F5FF044803F084FA57
:1001D0000023C4F8A830C4F8AC3010BD45F5D63AB9
:1001E0002DE9F04104462546884617468EB0002189
:1001F0001E4602F081FF304B182245F8143B0021C7
:10020000284605F002F82846414604F12C0500F086
:1002100031FB18220021284604F0F7FF2846394612
:1002200000F028FB4FF0FF330C930B930A930993D4
:100230000893079306930593049303930293019302
:10024000169B31460093149A159B04F1440002F06A
:10025000A1FE9DF85C30226B84F8A430A36B174894
:100260001A60A269636A03251A6003F035FA144E16
:1002700003212046FFF774FF304603F02DFA013DBD
:10028000F6D102212046FFF76BFF0E4803F024FA57
:1002900020462821FFF78EFF20460C21FFF78AFF1A
:1002A00006212046FFF786FF2046FFF789FF2046FC
:1002B0000EB0BDE8F08100BF3C8600008FC2753CE7
:1002C00045F5D63AACC52738026A83691360FFF753
:1002D00047BF90F8A430012B10D0032B14D1032A70
:1002E0000CD8DFE802F00E02050801F1C0007047EB
:1002F00001F19400704701F1D4007047282000FB01
:10030000021101F180007047901C01EB80107047D2
:1003100038B504461D46FFF7DCFF01462046FFF7CF
:1003200049FF29462046BDE83840FFF7CDBF90F889
:10033000A430023B012B8CBF10201420704790F892
:10034000A430032B0CBF0420022070470A2938B5C3
:1003500004460D4610D10023D0F8AC20C0F8A830D8
:100360000132C0F8AC20FFF7EAFF824202DB002333
:10037000C4F8AC30284638BD0B46D0F8AC20D0F8D5
:10038000A810FFF7C5FFD4F8A82020460132C4F812
:10039000A820FFF7CCFF8242ECDB0023D4F8AC208E
:1003A000C4F8A8300132C4F8AC202046DBE70000D6
:1003B00010B50446044B40F8443B02F0C1FD204612
:1003C00002F0B8FE204610BD3C86000010B5044681
:1003D000FFF7EEFF204603F0FAFA204610BD704703
:1003E0007047000070B50546094B064645F80C3BC2
:1003F0005DB100F12C04AC4207D0103CE368002B47
:10040000F9D09B6820469847F5E7304670BD00BF9D
:10041000A88B000010B50446084B443040F8443C1B
:10042000203340F8143C03F0D7FB04F1300002F015
:1004300081FE2046FFF7D6FF204610BD4C8A000003
:10044000A0F13000E6E700BF10B50446FFF7CAFF91
:10045000204603F0BCFA204610BD10B5044603F058
:10046000B6FA204610BD10B5044603F0B0FA204697
:1004700010BD00002DE9F04F4FF4E13185B0724816
:1004800002F099FF7149724802F066FE6023714CD8
:10049000002563700126A0232670A37022460095D4
:1004A000032390216C4802F0F7FE25703346224664
:1004B00000959021684802F0EFFE312323700B2352
:1004C00022466370A62100950223634802F0E4FEF1
:1004D0002D232370082322466370A6210095022352
:1004E0005D4802F0D9FE5C4D03945C4E5C4C3227B3
:1004F000DFF888814FF0000A039B564A1F70A6213F
:100500000123DFF87C91CDF800A0284602F0C4FE5C
:10051000404603F0E1F8DFF86CB101234A46A72119
:10052000CDF800A0284602F0D7FE99F800200BEB8A
:10053000070303F8322C4046013703F0CDF8382F7B
:10054000D8D19BF803209BF802809BF801309BF8E0
:1005500000009BF8047048EA02289BF8052040EA56
:10056000032047EA02273F4B0FFA88F83FB200B258
:10057000A3F802809F80188004F0E8F8314604F068
:1005800039F9DFF80491DFF804B1C9F800004046FA
:1005900004F0DCF8314604F02DF9CBF800003846C1
:1005A00004F0D4F8314604F025F9DFF8E4802E4B4E
:1005B000424618609021CDF800A00223284602F0A0
:1005C0008BFE98F8003098F80100284F00EB0320CC
:1005D000001103F011FD264B002203F073FD03F020
:1005E000ABFF38602046FFF7EBFD524651462046F0
:1005F000FFF7B0FDD9F8000003F010FD8046DBF8EE
:100600000000894603F00AFD4B46CDE90001424651
:100610001849204602F0A0FD012251462046FFF76E
:1006200099FD114B186803F0F9FC8046386889463B
:1006300003F0F4FC4246CDE900014B460E4920464A
:1006400002F08AFD53E700BFEC030010848600002F
:100650001C0400100B0300103003001024977F3B94
:100660003C03001028030010580400104804001038
:100670000000B03FA0860000B0860000CDCC4C3D0D
:10068000040300100503001050040010540400106F
:100690004C04001010B50446FFF7BCFE204603F0E2
:1006A00096F9204610BDA0F13000F3E74FF0FF337C
:1006B000F0B500262A4D85B02A4C00932A4A2B4BD0
:1006C0002B49284602F02EFF28462A4D22462A4969
:1006D00003F054F918220021284604F096FD28461C
:1006E000264900F0C7F8264B264D0293013B0193A3
:1006F000013B00930396013B234A24492846FFF718
:100700006FFD2846224D2246224903F037F9224F39
:10071000224A2349284602F093FD2846214D2246CD
:10072000394603F02BF9204A2049284602F088FD7B
:1007300022463946284603F021F94FF416531C4D42
:1007400000931C4A33461C49284602F039FB2246D6
:1007500028461A4905B0BDE8F04003F00FB900BFC4
:10076000E4020010C800001011C009200FC00920C9
:1007700012C0092010030010DF03000010C0092080
:1007800045C009203C0300103FC009203EC009209D
:1007900030030010B1030000E103000001C0092094
:1007A00000C00920F80200100BC009200AC009206F
:1007B000EC03001003C0092002C00920150400004A
:1007C0000748084A08B5121A002104F01EFD03F07C
:1007D0008EF804F04FFC03F091F803F0D1F800BF5D
:1007E000C8020010CC210010022801DD03F032B84D
:1007F0000120704708B5012003F0C2F808B5FFF7E3
:10080000F9FF70B50E460446154601F020FD01368D
:1008100009D02046002101F034FD29462046BDE8DC
:10082000704001F02BBD70BD38B504460D464368DD
:100830005AB1C26820461360012101F022FD294609
:100840002046BDE8384001F019BD0269F2E70322F5
:10085000FFF7D7BF70B50E460446154601F0F7FC0A
:10086000013606D02A462046BDE870400221FFF737
:10087000DBBF70BD0022FFF7EDBF0000014800F0B4
:1008800003B800BFC0860000036870B5DB6804468B
:10089000984763685A6823681AB99B68BDE8704036
:1008A00018475B68156898476368281A00285A68D3
:1008B00007DC916859601B68002BEAD050689847A4
:1008C000E7E7236810681B69BDE87040184700001F
:1008D00010B5044601300DD110BD9C4209D120460F
:1008E000896801F078FE2046BDE81040022101F041
:1008F0008BBE0C310B685A1CEFD10248BDE810408A
:1009000000F0BAB80D870000884208B508D0431C33
:1009100006D0013106D0044800F0AEF84FF0FF31A8
:10092000084608BD0146FBE7DC8600000B685A1C40
:1009300001D118467047834201D1486870470C3195
:10094000F4E70000421C10B5044607D0FFF7EEFFA5
:10095000431C044602D1024800F08EF8204610BD28
:10096000ED86000000F038B808B500F035F838B171
:1009700000F03AF830B900F02FF80028FBD108BD9C
:100980004FF0FF3008BDEFF31080C04300F00100CE
:100990007047000008B5FFF7F6FF72B6064B1A68FD
:1009A00022B980F00100054AC0B210701A681A68B6
:1009B00001321A6008BD00BF680400106404001012
:1009C00030B585B06D46182420462946ABBE044696
:1009D000204605B030BD0000024B186800F0010051
:1009E000704700BFF0ED00E037B540F2051401ADEF
:1009F00020462946ABBE0446204603B030BD000069
:100A000000B599B0FFF7C6FF17496846FFF732FFF8
:100A1000164906A8FFF72EFF15490CA8FFF72AFF75
:100A2000144912A8FFF726FF019A039B96201A602B
:100A3000079A0A9B1A600D9A109B1A60139A159BCD
:100A40001A6002F055FE019A049B96201A60079ADC
:100A5000099B1A600D9A0F9B1A60139A169B1A60D5
:100A600002F046FEE0E700BF32C0092034C0092092
:100A700035C0092037C009200FB4012008B502F0A5
:100A80007FFF01F00FBC000008B5024C23689847B7
:100A9000FCE700BFCC00001008B50B4800F09AFD41
:100AA0000A4B18600A4800F095FD0A4B18600A4886
:100AB00000F090FD094B186004F0DCFABDE8084036
:100AC0000021084602F01ABF6C870000341A00109B
:100AD0006887000074040010648700006C04001034
:100AE000FFF7D2BF10B5044600F0D4FC2146BDE8A4
:100AF000104002460148FFF7BFBF00BF2C8700002F
:100B000003F042B80B4AF0B4C2F1805303F500433E
:100B1000B3F5806F194628BF4FF48061064F074D2B
:100B20005B1A074C07489E183A602E6023600160EC
:100B3000F0BC7047D0210010501700107C0400104A
:100B40004C1700107804001000F028FEFFF7DAFFC1
:100B50000348002100F0C6FD00F01EFCFEE7000087
:100B6000D0000010024B4FF0FF31186800F050BD6C
:100B700074040010014B186800F072BD740400107A
:100B800030B502788C78013A4368D2B213B19D78BF
:100B9000A54207D2022A4B60416006D803B1996092
:100BA000886030BD18465B68F0E700238B6030BD7D
:100BB000436802785968013A022A41604FF0000206
:100BC00005D809B188605A609A60184670475A6023
:100BD000FBE70000034B5A684260002258608260C5
:100BE000704700BF28210010104B10B5DA688AB199
:100BF0009A8A8A42DC680CD3C460D860C4680361F6
:100C000004B12061521A92B28282998A8A1A9A8217
:100C100010BD3CB900248A1AC460D86003619A826E
:100C2000848210BDA38A1A442346E2E740210010C3
:100C30002DE9F041174DEB6853B10026AB8A164FF2
:100C4000013BDFF85880AB82AA8A0AB9EC680CB97C
:100C5000BDE8F081A36833B161685960616809B18A
:100C60008B606260A66021463846FFF789FFA38A41
:100C7000AB826378042B01BFD8F80030E28A9B185E
:100C8000A38201236370E368EB600BB11D61E66032
:100C90002661D9E74021001028210010BC21001056
:100CA00083682BB142685A6042685AB193607047BA
:100CB000054B5A68904202D142685A607047134609
:100CC000002AF6D1704700BF2821001010B58468B3
:100CD00001462CB94378012B0DD1074C03E0A468E1
:100CE0002378002BFBD00846FFF7DAFF2046BDE84B
:100CF0001040FFF745BF10BD28210010036910B553
:100D000063B1C268DA60C2684AB1998A848A2144B0
:100D1000998213610023C3600023036110BD9A828E
:100D2000FAE7000070B4114BDD78EFF31086EFF3B3
:100D3000108272B69A78954211D901329A701A7857
:100D4000541CA54208BF00241C7006B962B6954227
:100D500007D970BC03EBC203586099607047002E3E
:100D6000F4D070BC0220FFF7BDBE00BFAC1900106C
:100D7000054B1B7823B94FF08052044B1A60704723
:100D80000122034B1A707047D014001004ED00E0EC
:100D9000D114001038B51A4B1A4C1868012343704F
:100DA000FFF718FF6578A3783BB917486570FFF720
:100DB000FFFEBDE8384000F0CBBD04EBC50358682A
:100DC00002789AB9198900F00BFAE37801359D424F
:100DD00008BF0025EFF31083EFF3108272B6A278FC
:100DE000013AA270002BDED162B6DCE7012A03D102
:100DF000996800F083F9E8E701F006F9E5E700BF3C
:100E000074210010AC19001028210010084B4FF07D
:100E1000FF301A68074B1A6000225A60072243F815
:100E2000042C054A136843F07F431360704700BFEA
:100E30008C87000014E000E020ED00E07047000027
:100E400008B50B4B186801234370FFF7C3FE00F091
:100E5000FDF9084A136801331360FFF7E9FE00F05B
:100E6000FFFC0548FFF7A4FEBDE8084000F070BD98
:100E700074210010BC21001028210010064B1A68B4
:100E8000136BD26A934203D81A68044B9A4202D079
:100E90000120FFF727BE704774210010A52E5AE2EB
:100EA000F0B54FF080764FF0000E836A056B9B081B
:100EB00002BF1E4B1B889B0805EB8302540748BFEB
:100EC000043A02E94200A2F14004A2F14406A2F170
:100ED0000C0746F804EFBE42FBD1C66942F8206C0D
:100EE00041631249C4620968C90017D5112B15D98D
:100EF0006FF00701103B5B084B43A3F138010A4434
:100F00004FF0CC30214691420BD108331C44231FB3
:100F10009D423CBF4FF0CC3344F8043C044B2B6063
:100F2000F0BD41F8040C41F8080DECE774870000AF
:100F3000A52E5AE2C36A19627047C36A19625A62DF
:100F40007047002ABBBF22F000420732033222F072
:100F50000702A8BF22F0030210B5B4BF10230C2370
:100F600092B1D4188C420FD80144034454424160DA
:100F70000360826021449818814202D300510346E5
:100F8000F9E70020186010BD012010BDEFF31083B9
:100F900072B6026803F001030AB11168016003B977
:100FA00062B61046704781420DD3436899420AD217
:100FB000EFF3108372B602680A60016013F001005B
:100FC00003D162B6704701207047002070470123AB
:100FD00003700023103989084370837043600381D4
:100FE00043818381C181704770B585890446164667
:100FF000002D38D043891A1D50F8222001330A6091
:10100000C2899BB29A42438104BF00234381436853
:10101000F3B14378022B1BD1FFF7CAFD054600212F
:10102000FFF788FF2389E9691A1D44F8221001336C
:10103000E2899BB29A42238108BF0023284608BF59
:101040002381FFF75BFE284600F09CFC002070BD6A
:10105000EFF31080EFF3108372B6013DA5810028F5
:10106000F4D162B670BD4AB14268094B42B1196809
:10107000FFF786FD0821304600F0A6FC012070BD78
:101080001B6843605A60986001234370F2E700BF19
:1010900074210010C2898089101A704708B5FFF7C3
:1010A00041FEBDE80840FFF763BE838910B50446E2
:1010B0000BB34389043350F823300B604378022B81
:1010C00004D10021FFF72EFEFFF752FEEFF310834D
:1010D000EFF3108272B6A289013AA28103B962B617
:1010E0006389E28901339BB29A42638101D1002373
:1010F0006381042010BD184610BD0000436870B520
:1011000004460E46002B4BD04578022D20D0032DEF
:101110000AD0012D61D1FFF74BFD04463246102164
:10112000FFF70BFF65700EE00846FFF72FFF05463F
:10113000002852D02046FFF73BFD29460446FFF722
:10114000F9FE012363702046FFF7D8FD214622E017
:10115000FFF72EFD05460021FFF7ECFE2389E96924
:101160001A1D44F82210EFF31082EFF3108172B6CB
:10117000A1890131A18102B962B6E28901339BB232
:101180009A42238104BF00232381012328466B70E8
:10119000FFF7B4FD2946BDE870401048FFF7F0BCEA
:1011A0008089E189884213D223891A1D44F822607C
:1011B000EFF31082EFF3108572B60130A08102B90F
:1011C00062B601339BB2994208BF0023238170BDF0
:1011D0000320BDE87040FFF785BC70BD28210010DA
:1011E00010B5038B42781943062A04460183438BCA
:1011F00015D133EA010219D121EA030121832046E6
:10120000FFF77CFD012320466370628B0821FFF706
:1012100094FE2146BDE810400548FFF7B1BC052A01
:1012200004D111EA030201D04283E5E710BD00BFFB
:10123000282100100022034B1A60034A1268DA804A
:10124000704700BF602100107087000008B50E4B8A
:101250005A680E4B196891420D4905D01A60DA8818
:101260000868013A02449A8098880A8890420AD114
:10127000002205481A60FFF79BFCBDE808400146C4
:101280000148FFF77DBC08BD282100106021001037
:10129000BC21001030B500240A4A136843B903602A
:1012A000816013B19D68691A996044B1206030BDB6
:1012B0009D68A942F3D31C46491B1B68EEE71060EA
:1012C00030BD00BF70210010C0B1431C11D00C4BC9
:1012D000984211D84FF47A710A4B1B685A1E01FBD1
:1012E0000020B0FBF3F34FF6FE70834206D898B2AD
:1012F00070474FF6FF7070474FF6FE70704700BFA3
:1013000000093D002887000038B1830704D1037825
:10131000002B18BF0020704700207047B0B50E4D5D
:1013200000AF2878A8B90D4C236893F8241000F07A
:101330006DFB2368DA78FF2A03D1DA6A203282F360
:10134000098862680AB984E80C0000F017FD0123DF
:101350002B700020B0BD00BF6D2100107421001063
:10136000014B1878704700BF6D21001010B5EFF3E6
:10137000108434B9EFF305841CB9EFF31484E40747
:1013800002D4034B187810BDDFF808C000DF10BD91
:101390006D2100106113000090B589B000AFEFF32C
:1013A0001083002B37D1EFF30583002B33D1FFF7E8
:1013B000DDFF28B9194C246814B1646804B1A04752
:1013C000EFF3148404F00304022C18D0032C1CD077
:1013D000012C1ED007F1200484F30988104C2478D6
:1013E000E40710D5022484F31488BFF34F8FBFF3B2
:1013F0006F8FDFF830C000DF2437BD4690BD084C4A
:101400002478E407F5D40324EDE7054C2478E407B9
:10141000EFD5FF20F0E78220EEE700BF5C2100104F
:10142000568700001D13000070B50B461646024695
:1014300010B90024204670BD00680028F9D0B2F928
:101440000440E51CADB2062DF3D8D168C1B11269D4
:10145000043444EA012100F017FB0028E9D00A4BCC
:10146000013853F82040094AE36A5A63084B1B6865
:1014700043B19B6833B13146E0789847E063D9E7E0
:101480000A46E5E7E663D5E770190010311600005B
:101490005C21001008B500F0B1FA18B1024B013818
:1014A00053F8200008BD00BF7019001010B5FFF7F9
:1014B0002BFF044670B1084B1B681BB1DB680BB1F6
:1014C000C06B9847E07800F035FBFF280CBF812007
:1014D000002010BD802010BD5C21001008B528B18F
:1014E000FFF7F2FE00F08CFD402008BD08BD0000B3
:1014F00010B5EFF3108434B9EFF305841CB9DFF8AD
:101500000CC000DF10BD822010BD0000DD14000003
:10151000830705D138B1436901691B6818467047D4
:1015200000231946FAE70346FBE7000010B504461E
:101530000846DFF80CC000DF84E80300204610BD39
:101540001115000010B548B1046824B1237823B9FF
:10155000204600F059FC204610BD002010BD70B59B
:1015600010F0030405460E4611D180B10378032B19
:101570000DD10846FFF7A8FE0146284600F012FDEF
:10158000012806D1002E14BFC120812070BD80200B
:1015900070BD204670BD820708B50AD148B10378F6
:1015A000032B06D100F08EFCFF280CBF8120002009
:1015B00008BD802008BD10B510F0030407D130B17C
:1015C0000378032B03D100F027FC204610BD8020B8
:1015D00010BD000070B50546EFF3108494B9EFF329
:1015E00005867EB9EFF31484E40706D4064C24780C
:1015F0001CB9BDE87040FFF7A5BF2846DFF80CC056
:1016000000DF70BD002070BD6D2100104515000089
:1016100010B5EFF3108434B9EFF305841CB9DFF88B
:101620000CC000DF10BD822010BD00005F1500005F
:10163000084808B54FF0FF310068FFF7E9FFDFF811
:1016400018C000DF0446FFF75BFA2046DFF80CC045
:1016500000DFFEE76821001095140000AD140000C3
:1016600010B5EFF3108434B9EFF305841CB9DFF83B
:101670000CC000DF10BD822010BD000097150000D7
:101680002DE9F04180460F461646EFF3108404BB67
:10169000EFF30583D3B9EFF31483DB0706D40E4BC6
:1016A0001B781BB9BDE8F041FFF7BEBE0B4D4FF0F4
:1016B000FF312868FFF7ACFF404639463246DFF875
:1016C00020C000DF04462868FFF7CAFF2046BDE8B7
:1016D000F0810024FAE700BF6D210010682100109E
:1016E000291400000022FFF7CBBF000010B5EFF374
:1016F000108434B9EFF305841CB9DFF80CC000DFA7
:1017000010BD822010BD0000B715000010B50446C2
:1017100060B1016851B1406848B1037833B9043110
:10172000890089B2FFF753FC606810BD002010BD2E
:1017300038B5114C23780BB900F0A6FAFF220F4BF5
:1017400025781B689A708DB929460D48FFF7DEFF92
:101750000C4B2A46186029460B48FFF765FE0B4BD9
:1017600018600B48FFF736FF0A4B18600123002072
:101770002370094B187038BD6C21001074210010C3
:101780005C870000301A00107887000024210010C8
:1017900090870000682100106D21001010B5EFF354
:1017A000108474B9EFF305845CB9EFF31484E40793
:1017B00003D4BDE81040FFF7BBBFDFF80CC000DF6B
:1017C00010BD822010BD0000311700002DE9FF413F
:1017D0000C46804618B30378012B25D10846FFF745
:1017E00073FD02A902464046FFF7FEFB012811D116
:1017F0000020002C0246034618BF402002990446F0
:101800000D4616461F462046294632463B4604B042
:10181000BDE8F0810020024603461020EEE7802458
:10182000054606460746EEE7002580242E462F464D
:10183000E9E770B50E461446054660B15AB903781B
:10184000012B08D1FFF726FC38B128463146FFF7B7
:1018500025FC204670BD802070BD812070BD000039
:10186000F8B5114E34682CB1A368104F013BA3604A
:10187000A26802B1F8BD2568214638683560FFF7D7
:10188000D8FF10B10420FFF72DF96379012B07D1A0
:10189000E1682046FFF7FEFC002DEBD02C46E7E781
:1018A00001232371F8E700BF70210010301A0010E7
:1018B0007FB504461646084601B122B18023236055
:1018C000204604B070BD0B78012BF7D102A9FFF7B9
:1018D000ECFB042808BF102301AD14BF019601934F
:1018E00095E8070084E80700EAE7000038B50446F9
:1018F0001546EFF3108010B9EFF3058028B12A46A2
:101900002046FFF7D5FF204638BD08461146DFF8D0
:101910000CC000DF84E80700F5E70000CD170000E9
:101920007FB50A4C4FF0FF32216803A8FFF7DEFFB6
:10193000039B102BF6D1049901A8FFF7F7FD019B3B
:10194000002BEFD002989847ECE700BF301A001048
:10195000054B586002234370044B1B681BB11B6985
:101960000BB1C06B18477047742100105C21001048
:1019700008B50348FFF71CF9BDE80840FFF7E8BFCA
:101980002821001070B5044618B9BDE87040FFF773
:10199000EFBF0B4EA2783068012583789A4208D9B0
:1019A000FFF718F9336820465D70BDE87040FFF717
:1019B000CFBF65702146BDE870400248FFF7E0B830
:1019C000742100102821001038B50D46014680B161
:1019D0004FF6FF739842074C02D02068FFF704F9D6
:1019E000236805485D70FFF7E3F8BDE83840FFF76E
:1019F000AFBF38BD7421001028210010024B1868B9
:101A000000B1C078704700BF7421001010B5A8B9AC
:101A1000194B1B68997083F82410184843689B7809
:101A20008B4201D8002010BD134C2168FFF7A8F8A5
:101A3000012223685A70FFF79BFFF3E7104B1B88C6
:101A4000984217D80F4B013853F8204094B10A4BF5
:101A5000A1701B6884F824109C42DED02046FFF75A
:101A600035F96378012BDDD10448FFF7A1F8FFF7C2
:101A700089FFD7E7FF2010BD742100102821001036
:101A800058870000701900102DE9F0470D4611F03D
:101A9000FF0F8046234816469A4608BF0135FFF7D8
:101AA00075FA044620B94FF000094846BDE8F087B2
:101AB00000211D4B06631B88280A1C4EA0628B4226
:101AC00001F10109EFD006EB890252F8042C0F4610
:101AD0004946002AF3D10123EDB284F80390C4F8FB
:101AE0001CA0C4F838A022706370A57084F824503C
:101AF0006260A260E26022612262A282E2822283AC
:101B0000628384F8252018B90948FFF73FFA20635B
:101B100020464146FFF7C4F9204646F82740FFF724
:101B200031FFC2E7581D00105887000070190010DF
:101B3000601700102DE9F84F4D4D18B12B68DB7878
:101B4000984241D100232C680127637002F04FF8BE
:101B5000E062FFF793F92B68DFF828811C6AA4B9CB
:101B60002A684449D3784448013B41F82340116B2B
:101B7000FFF719FA296841480C63FFF714FA2C6043
:101B8000FFF7F6FE2046BDE8F88F6368B3B1204644
:101B9000FFF70EF806460021FFF7CCF93046FFF7B5
:101BA000ADF8777031464046FEF7EAFFE368326AE7
:101BB0006780A660E26034621C46D0E7E26863801A
:101BC000A360E3601446CAE72D4B1B8898424DD8AA
:101BD000284B471E53F827609946002E46D04FF0F9
:101BE000010A3046FFF75CF83046FFF787F8DFF868
:101BF00094B0346AB4B9316B1F4849F82740FFF7F5
:101C0000D2F9314634631D48FFF7CDF91D482968E4
:101C100043689A788B789A42B4D901234B70FEF7C7
:101C2000AFFFADE76368DBB12046FEF7C1FF80463A
:101C30000021FFF77FF94046FFF760F888F801A020
:101C400041465846FEF79CFFE368D8F82020A4F8E8
:101C500002A0C4F80880E260C8F820401C46C9E72A
:101C6000E2686380A360E3601446C3E7FF2489E76A
:101C7000742100107019001060170010581D00101A
:101C8000588700002821001038B52C4B2C491A88A1
:101C90000023184693424DD32A4B402219882A48E4
:101CA000FFF74FF9294B2A481A882A4B42F0004285
:101CB0001968FFF746F9284B08221988274B284C4A
:101CC0001868FFF73EF9FF230025E3700123204841
:101CD0006370A5622570A57084F824506560A560C6
:101CE000E56025612562A582E5822583658384F808
:101CF0002550FFF74BF91B4920632046FFF7D0F82A
:101D00000422194B20461A705D60184B1A70DD6072
:101D10001D619D82164B1C6002236370FFF718FE45
:101D2000144A154B12781D705D70DA70BDE83840AA
:101D3000FFF780BA41F823000133ABE75887000072
:101D40007019001024870000581D001074870000CF
:101D50006017001020870000268700007004001024
:101D60007C210010E10A0000282100104021001011
:101D70007421001055870000AC19001008B51E4BE7
:101D80001A6842F47F021A601B681B0203F07F434B
:101D9000DB43B3FA83F3194ADBB21268C3F10803D9
:101DA000C2F30222934298BF531C6FF08072144812
:101DB00002FA03F3016803F07F4321F07F421343EB
:101DC0000360FFF723F80F4B0028186012DBFF2297
:101DD000012100F1604000F5644002701A68530967
:101DE0009B0003F1604302F01F0203F5614301FA17
:101DF00002F21A6008BD00BF20ED00E00CED00E02B
:101E00001CED00E0582100100323037000234380E1
:101E100043608360C3607047F8B5438804469BB154
:101E20008068036A9C4228D1E368036290F82430FA
:101E3000026A52BB82789A4206D083701F4B1B689D
:101E4000984201D0FEF742FF01261D4F656825BB71
:101E50001B4843686BB1194E9A7831688B789A4267
:101E600007D9FEF78DFE0122336828465A70FFF726
:101E700089FD00202070F8BD1346002BD6D0DA680B
:101E80009442F9D1E268DA60D0E7516819B18978F3
:101E90008B4238BF0B46D268CBE72046FEF788FE60
:101EA00005460021FFF746F82846FEF727FF6E702B
:101EB00029463846FEF764FEC8E700BF74210010CB
:101EC000282100102DE9F84343880546002B63D0F4
:101ED000324F81683A6891425ED1013B9BB24380A8
:101EE0001BB100242046BDE8F8830B6A984229D133
:101EF000C3680B6291F824300C6A5CBB8B706A6813
:101F0000DFF89C80002A3BD02846FEF751FE0646AB
:101F10004FF001092146FFF70DF83046FEF7EEFEBF
:101F2000336A3968EB60D8F80430A5F80290AE60E7
:101F300035628A789B789A4214D33046FFF722FDA7
:101F4000D0E71346002BD5D0DA689542F9D1EA687C
:101F5000DA60CFE762681AB19278934238BF1346CD
:101F6000E468CAE74046FEF70BFE31464046FEF7FE
:101F700007FE3B6883F8019086F801902046DDE774
:101F8000D8F8042092789A42ABD94046FEF7F8FD83
:101F900001223B685A70F1E7FF24A3E77421001087
:101FA00028210010438870B504460E46134D43B9EE
:101FB0002A68116A8260C160106201336380002068
:101FC00070BD80682A689042F7D081B1937882789A
:101FD0009A4202D28370FEF779FE62684AB129689C
:101FE0002046FEF7CDFD09213046FFF7EDFC01202C
:101FF00070BD2B6863605A609C60F4E77421001028
:102000000321FFF7E1BC0000426810B57AB1FEF78A
:10201000CFFD0446FEF772FE012120466170FEF7F7
:1020200089FF2146BDE810400348FEF7A9BD42885C
:102030000132428010BD00BF282100102DE9F74F6A
:102040000F4680462949384616461D460C9CFEF729
:1020500079FC274981463046FEF774FC25490190FA
:102060002846FEF76FFC244982462046FEF76AFCAC
:10207000019B834619464846FEF746FC5946814671
:102080005046FEF741FC01464846FEF73DFC1B4B1F
:10209000C8F8000098421FD003F5B023984206D13B
:1020A000174AD2F8C43043F40013C2F8C4300F49C1
:1020B0003846FEF70DFC0E493046FEF709FC0D4987
:1020C0002846FEF705FC631C0CD020460A4903B0E5
:1020D000BDE8F04FFEF7FCBB094AD2F8C43043F428
:1020E0008063E2E703B0BDE8F08F00BFD087000057
:1020F000948700000C88000048880000000003401E
:1021000000C00F40002B14BF0423002330B5046827
:102110000139606820F0020060602568D001C0B21B
:10212000C2F340022D0C084340EA82102D042843DC
:102130002060626822F00D0213436360636843F01D
:102140000203636030BD00002DE9F84304680E46C9
:10215000636823F0020363602C4B9C423FD003F57D
:10216000B0239C420DD103F5E823D3F8AC2122F42F
:102170004062C3F8AC21D3F8AC2142F48062C3F8CA
:10218000AC2102254FF07C58214B1F68B7FBF5F0BE
:1021900002F0DCFA8146304602F0D8FA01464846A1
:1021A00002F0DCFB414602F01DFA01F037FF06F0B9
:1021B0000BF902F099F9FF281FDC2561236801382B
:1021C00023F47F0323F47F432360236843EA002042
:1021D0002060636843F002036360BDE8F8830D4B41
:1021E000D3F8A82122F44012C3F8A821D3F8A821DB
:1021F00042F48012C3F8A821C3E70235B5F5807F09
:10220000C4D10548BDE8F843FEF736BC00000340E2
:10221000E400001000C00F40848800000368DA6802
:102220009207FCD59960704710B5FFF7F7FF036878
:10223000DA685207FCD5986810BD10B50021044635
:1022400000F0C9F9012004F01F04A04010BD38B50A
:1022500005464B1C0C4629600FD00846FFF7EDFFE2
:1022600024F01F0404F11803EB6004F11C032B613C
:1022700004F1140368606B61AC6038BD006800F065
:10228000C3B911B1012907D070478268416813684A
:1022900023EA0103136070478268416813680B43A7
:1022A000F8E7000008B5FEF75FFB0022044BC3F817
:1022B000C020044A136923F00403136130BF08BD32
:1022C00000C00F4000ED00E008B5104B1868E0B901
:1022D00001210F4A1960D2F8C43043F40003C2F858
:1022E000C430A2F5D022106702200A4B1B68506050
:1022F0000948B3FBF0F3013BD36004205160074968
:1023000000F0D0FC1022064B1A6008BDE414001047
:1023100000C00F40E400001000093D007D080000EF
:1023200000E100E008B5044B1B680BB9FFF7CCFFD8
:10233000024B986808BD00BFE4140010004009403B
:10234000034B98615A6942F001025A61704700BF1D
:1023500000400940024A536923F00103536170476A
:10236000004009400122014B1A60704700400940BB
:102370000168054B0A68120701D500207047013B30
:10238000F8D14FF0FF307047A18601003421036877
:1023900010B51A689961120748BF08224FF024014E
:1023A0000446196048BF9A61FFF7E2FF20222368C4
:1023B00058689A6110BD0000102203681A60082254
:1023C0009A61054A186810F0100000D17047013A70
:1023D000F8D10120704700BFA1860100044B4900DD
:1023E0001B689B08B3FBF1F10368596119617047E1
:1023F000E4000010F8B50E46044620493046154664
:10240000FEF7A0FA1E4907462846FEF79BFA01464A
:102410003846FEF779FA1B4B2060984221D003F52D
:102420008823984223D0A3F50423984206D1164A64
:10243000D2F8C43043F08003C2F8C43020461349B8
:10244000FFF7CCFF3C22236830469A6140220B49BB
:102450001A60FEF73DFA2846BDE8F8400849FEF745
:1024600037BA094AD2F8C43043F40023E4E7064AF5
:10247000D2F8C43043F08063DEE700BFE888000094
:10248000AC88000000C0054000C00F40A0860100DD
:102490002DE9F04E04460E4691461D46FFF776FFA5
:1024A000102809D0082807D02046FFF785FF6FF0D5
:1024B00001052846BDE8F08E0827236846F001068E
:1024C0009E6020469F61FFF753FF23685B68402BA7
:1024D00017D100264FF0040B05F1FF3A564523684B
:1024E00015DBC3F818B020469F61FFF741FF236852
:1024F0009A685B68582B1ED02046FFF75DFF554653
:10250000D7E72046FFF758FF4FF0FF35D1E7C3F874
:1025100000B020469F61FFF72BFF23689A685B6835
:10252000502B04D02046FFF747FF3546C1E709F896
:1025300006200136D2E7089B09F80620002BB8D008
:102540002046FFF739FFB4E72DE9F843089F04461A
:102550000E4691461D46FFF719FF102809D008289E
:1025600007D02046FFF728FF6FF001052846BDE899
:10257000F8834FF00808236806F0FE069E602046A8
:10258000C3F81880FFF7F4FE23685B68182B08D1A6
:102590000026AE420BDB002FE8D02046FFF70CFFF1
:1025A000E4E72046FFF708FF4FF0FF35DEE723683A
:1025B00019F8062020469A60C3F81880FFF7D8FE65
:1025C00023685B68282B04D02046FFF7F5FE3546CC
:1025D000CCE70136DDE710B5032400F16040A0F53B
:1025E0001C2043000009800000F1804000F53030DD
:1025F000026803F01E039C4022EA040202600268A3
:1026000099401143016010BD00F16040A0F51C200D
:1026100043099B0003F1804303F5303330B500F0EC
:102620001F029C6EC1F3800505FA02F224EA02043F
:102630009C669C6E22439A6695B903244300000968
:10264000800000F1804000F53030026C03F01E0382
:102650009C4022EA04020264026C99401143016426
:1026600030BD0000012810B408D0022808D010BCEA
:102670007047506820F00100506010E003460EE003
:1026800038230F4803FB01035868013006D018694E
:102690009C68046093F83630002BEAD0002338227F
:1026A00051430748421840580028E0D01BB992F81F
:1026B0003620002ADBD0034A1946126810BC1047A6
:1026C000F0140010E8140010034A00219068C0F3D1
:1026D0004200FFF7C7BF00BF00C00040034A01210E
:1026E0009068C0F34200FFF7BDBF00BF000001408B
:1026F000034A02219068C0F34200FFF7B3BF00BF56
:1027000000800940034A03219068C0F34200FFF7AC
:10271000A9BF00BF00C0094070B50B460668294933
:102720008E4222D006DCA1F580418E420CD00021E1
:102730000C460BE024498E421AD001F580418E42AE
:10274000F5D12249082401E0052421499AB1012547
:10275000726805FA03F313437360204600F0A2FA8F
:102760001C4B05FA04F41C6070BD1B490624EDE700
:102770001A490724EAE7012B0AD042683820184991
:1027800000FB021292F8361092F83520D14217D190
:10279000012202FA03F0B3FA83F371685B0921EABC
:1027A00000017160716802FA03F30B4208D1094B12
:1027B00002FA04F4C3F88040BFF34F8FBFF36F8F6A
:1027C00070BD00BF000001400080094005270000E7
:1027D000C926000000E100E0DD260000F12600002F
:1027E000F01400102DE9F04F644B046887B09C4250
:1027F00000F08D806ADCA3F580439C4279D0604B69
:102800000801D3F800C0BCFBF0F293B200FB12C287
:10281000002A00F0AA800125E6469946AB464FF013
:10282000000A0191039100264FEA4E030493DDF85C
:1028300004804FEA8E03EFB20593F3B20093049B3A
:10284000002BABBF059BB3FBF8F3B3FBF8F31B09FD
:10285000A8BF5B090133C3F34F03002B00F088804E
:1028600016B1012B08BF0223A8195843C000BEFBB4
:10287000F0F00130C1EB50000028B8BF4042029098
:10288000029A0398824262DA91425AD10F2D07D1FF
:10289000BB469946DDF800A05F464B46CDF800A048
:1028A000217B41F080012173C3F30721DBB2217149
:1028B0002370009B43EA0712D2B284F82820237BBE
:1028C00003F07F03237307B0BDE8F08F2D4B9C42CC
:1028D00029D003F580439C4291D12B4BD3F8AC21F6
:1028E00022F44022C3F8AC21D3F8AC2142F4802278
:1028F00024E0254BD3F8A82122F0C002C3F8A82178
:10290000D3F8A82142F04002C3F8A82177E71E4B74
:10291000D3F8A82122F44072C3F8A821D3F8A82143
:1029200042F48072F0E7184BD3F8AC2122F4403225
:10293000C3F8AC21D3F8AC2142F48032C3F8AC2107
:102940005DE7BB469946029ADDF800A00392013686
:10295000F3B2BB428844FFF470AF0F2D9CD0019BB3
:1029600001350B44E64401935DE70127009297E7A8
:10297000002E0CBF0123022376E700BF00000140B8
:10298000E40000100080094000C00F40034B1960B4
:10299000382341684B430249CA507047E81400107D
:1029A000F014001010B50268137DDB07FCD5382445
:1029B00043680848117804FB03035868C9B2013022
:1029C00006D058699B680360536843F00103536065
:1029D000084610BDF01400103821114A436801FB6D
:1029E0000323DA69013209D01A6B1B6A12681A4292
:1029F00014D10368187DC0F3801070470268127DFF
:102A0000920604D50022012083F83420704793F801
:102A100034000F288CBF0020012070470020704731
:102A2000F014001038B504460D462046FFF7D4FFD9
:102A30000028FAD038212368EDB21D706368044A7B
:102A400001FB032393F83420013283F8342038BD8E
:102A5000F01400102DE9F84F9A463C4C03680546E7
:102A6000A34218BF00248946904647681CB1237CC6
:102A700003F03F03237438234FF0FF32344E2846CF
:102A800003FB0763DA615A60002283F835201146A0
:102A9000FFF742FEB9F1000F55D02E494046FDF731
:102AA00045FF2D4983465046FDF740FFA9F102033B
:102AB000012B1BD8BAF1FF3F0BD0244B98420DD10C
:102AC00064B1237C244943F0800323745046FDF70E
:102AD000FFFEB9F1030F0CD0BDE8F88F382000FBE2
:102AE000076051461C30FDF7B2FEF2E7B9F1010F65
:102AF00029D1B8F1FF3F01D1BDE8F88F07222B683B
:102B00001A72124B9B450AD14CB1237C404643F0CC
:102B1000400323740F49BDE8F84FFDF7D9BE3824B0
:102B200004FB0760414600220430FDF793FE0122BA
:102B30006B68284604FB036686F835200021BDE853
:102B4000F84FFFF7E9BDBDE8F88F00BF0000014076
:102B5000F014001048890000248900002DE9F0419C
:102B60000F460546464938461646FDF7EBFE4549F1
:102B700004463046FDF7E6FE01462046FDF7C4FE5A
:102B8000414B0446984228605DD047D8A3F5804366
:102B9000984250D001234FF0000823724FF4165191
:102BA0002846C4F80480FFF71DFE03222B68344931
:102BB0001A733846FDF78CFE32493046FDF788FE21
:102BC0007A1C03D041463846FFF71EFD731C03D024
:102BD00000213046FFF718FD2B4B9C424BD03ED8CE
:102BE000A3F580439C4243D038216A68274B28468E
:102BF00001FB02324FF0FF3300215360D3611A46CC
:102C0000FFF728FF224B9C4206D10122214B696825
:102C10001A602868204B03C3BDE8F0811F4B98421F
:102C200017D003F580439842B4D11D4AD2F8C4307E
:102C300043F0007304E01A4AD2F8C43043F00803AA
:102C4000C2F8C430A6E7164AD2F8C43043F01003E5
:102C5000F6E7134AD2F8C43043F08073F0E70F4B25
:102C60009C420AD003F580439C42BDD1032300E07F
:102C700000236B60B8E70123FBE70223F9E700BFFD
:102C8000D88900006C89000000000140F014001099
:102C900000C00040EC140010C0210010008009406A
:102CA00000C00F4030B50C4CA268A4681346B4F1C4
:102CB000805F0CD2131F094C094A53F8045F42F895
:102CC000045FA242F9D14FF08053034A9360103061
:102CD00043F8201030BD00BF00ED00E0C000001040
:102CE000FCFFFF0F2022264BC3F8A021D3F8A02120
:102CF000920603D5D3F8A0215006FBD50222C3F8D3
:102D0000042100220120C3F8A821C3F8AC210B2222
:102D1000C3F80C01AA21C3F884205522C3F88C10F3
:102D2000C3F88C20C3F88000C3F88C10C3F88C2043
:102D3000134B1A46D3F888104901FBD50321C3F879
:102D40008010AA21C3F88C105521C3F88C10D2F83A
:102D5000883013F0407FFAD00523C2F80831094BC0
:102D6000C2F8C4300023C2F8C831136823F470439A
:102D700023F03A0343F4405343F03A03136070479F
:102D800000C00F40DE87280400F028BBA0F130000F
:102D9000FFF7FABF00F025BBA0F13000FFF7FABF44
:102DA0004FF0FF31443000F011BFA0F13000FFF7C9
:102DB000F7BF443000F00DBFA0F13000FFF7F9BFBE
:102DC00038B504461D46049B00F012FB294604F169
:102DD000300000F091F9064B04F1440003F10802C1
:102DE00028332260236300F0D9FE204638BD00BF9F
:102DF000448A0000C36810B504460BB19B6898472D
:102E0000204610BD007B7047036870B5044683B947
:102E1000094D4FF0FF312868FEF7FAFB23682BB904
:102E2000261D02D0304600F0B9FE26602868FEF765
:102E300017FC206870BD00BF341A001038B50E4B67
:102E40000446036000230D464360A16002730B48F3
:102E5000FFF7DAFF4FF0FF3100F0B8FE55B1084B35
:102E60001A681C6062600548FFF7CEFF00F0B1FEF3
:102E7000204638BD6560F6E7BC8A0000D415001016
:102E8000D015001010B50446114B03601148FFF730
:102E9000BBFF4FF0FF3100F099FEA3682BB10E4A43
:102EA00013689C420ED1636813600A48FFF7ACFFB9
:102EB00000F08FFE237B13B9204600F08BFD2046E7
:102EC00010BD13465A689442FBD162685A60ECE721
:102ED000BC8A0000D4150010D015001010B50446AF
:102EE000FFF7D0FF204600F072FD204610BD000025
:102EF000F8B5074610480E46FFF786FF4FF0FF3142
:102F000000F064FE0D4B1C6864B1A5688DB13246BB
:102F10003946284603F011FB58B9284603F005FB53
:102F2000864206D10448FFF76FFF00F052FE2046AC
:102F3000F8BD6468E8E700BFD4150010D015001094
:102F400070B504460546094B00F1440644F8043BBD
:102F500054F8040B08B100F03AFDB442F8D105F181
:102F6000480000F039FE284670BD00BFCC8A000042
:102F700010B50446FFF7E4FF204600F028FD204688
:102F800010BD4FF0FF31483000F020BE483000F057
:102F900020BE00002DE9F0411C46274B90B00546AD
:102FA00040F8483B0F46164600F0F8FD0294002416
:102FB000169B00970393179B01960493189B6C64D0
:102FC0000593199B2F1D06931A9B07931B9B089330
:102FD0001C9B09931D9B0A931E9B0B931F9B0C9399
:102FE000209B0D93219B0E93229B0F935DF82480D1
:102FF000B8F1FF3F1DD0182000F0D0FC064600219C
:10300000182202F002F941463046FDF733FCB8F1D0
:10301000FF3F47F8046B05D0012303FA04F26B6C01
:1030200013436B640134102CE0D1284610B0BDE886
:10303000F0810026EBE700BFCC8A000070B50446A3
:1030400054F8043B05469B680E469847002354F805
:10305000042B42B146FA03F111F0010F506814BF7E
:10306000D268126910600133102BF0D12B6828460A
:10307000BDE87040DB68184710B50446FFF7DEFF77
:10308000204610BDF8B50E46036804469B6B8F18AA
:1030900035469847BD4207D0236815F8011B1B6CC5
:1030A000204698470130F5D123682046DB6B9847CE
:1030B000A81BF8BDF8B50E46036804469B6B8F1835
:1030C00035469847BD4208D0236820465B6C984738
:1030D000431C02D005F8010BF4E723682046DB6BA4
:1030E0009847A81BF8BD0020704700207047704724
:1030F00000207047002070471FB504460022FFF7EC
:103100009DFE094B2246236000230849236101A844
:1031100003F06EF9064901A801F0F4FE206100F009
:1031200032FC204604B010BD348B0000248B00001C
:10313000288B000010B50446054B0360006901F0C0
:1031400027FD044B20462360FFF79CFE204610BD60
:10315000348B0000E48A00000EB477B5044603689F
:1031600007AD55F8046B9B6B98472069019501F0FA
:10317000C9FD019A3146206902F06CFA05462368C0
:103180002046DB6B9847284603B0BDE8704003B08B
:1031900070470368184708B10B68036070477047B1
:1031A000884238B504460D460AD0FFF723FE3CB1ED
:1031B000EB681BB15B68294620469847EB68E360E3
:1031C000204638BD70B50D4C23687BB90C4D4FF0CF
:1031D000FF312868FEF71CFA236823B9261D304604
:1031E00000F0DCFC26602868FEF73AFA20684FF011
:1031F000FF31BDE8704000F0E9BC00BFF0150010E1
:10320000341A001070B50C4C23687BB90B4D4FF08D
:10321000FF312868FEF7FCF9236823B9261D3046E4
:1032200000F0BCFC26602868FEF71AFA2068BDE8AA
:10323000704000F0CEBC00BFF0150010341A001032
:10324000074B10B50360002304464360054B043070
:103250004360FFF7CFF8044B20461C6010BD00BF51
:10326000908B0000A08601000C16001070B504467B
:103270000368084D1B6898472B689C4204D0A168DE
:10328000201DFFF7ABF82C6023682046BDE8704096
:103290005B6818470C160010F7B504460E46174633
:1032A0001D4603681B6898472046FFF7DFFF9DF81F
:1032B0002030314683F0010300933A462B46201D0F
:1032C000FFF742F90646236820465B689847A81B2B
:1032D00018BF012003B0F0BDF7B504460E461746EF
:1032E0001D4603681B6898472046FFF7BFFF9DF8FF
:1032F0002030314683F0010300933A462B46201DCF
:10330000FFF7C6F80646236820465B689847A81B67
:1033100018BF012003B0F0BD002310B50360436067
:103320000A7804462F2A0DD14A785AB1481C19460A
:10333000206023681A782F2A06D101332360FFF713
:10334000D7FD6060204610BD002AF8D0013301315E
:103350002360EEE700687047406808B520B1FFF7CA
:1033600051FD431E5842584108BD10B50446FFF7B1
:10337000F3FF00B1606810BD406808B520B1FFF7E9
:1033800041FDB0FA80F0400908BD10B50446FFF7D2
:10339000F3FF00B1606810BD4068003018BF012025
:1033A000704770477047704700EB0112936902F154
:1033B0000C001B68184770B505460E46044655F8C4
:1033C000043B1B68984728463146FFF70BFA2368F1
:1033D000E6622046BDE870405B6818470430FFF79E
:1033E000E1BA10B50C460430FFF71CFB204610BDB7
:1033F0002DE9FF410F46002104469046174A184E1A
:10340000184DC362026041608160816181626946DA
:103410000C3003950096FFF7C3FE6846FFF7EAFC01
:10342000694604F11C0003950096251DFFF7B8FEC0
:103430006846FFF7DFFC424639462846FFF78EFB19
:10344000E16A2846FFF7CEF9284622460649FFF7EB
:103450009DFA204604B0BDE8F08100BFA88B0000B3
:10346000A33300007C8B0000A933000070B50D4C25
:1034700023687BB90C4D4FF0FF312868FEF7C8F880
:10348000236823B9261D304600F088FB2660286893
:10349000FEF7E6F820684FF0FF31BDE8704000F01D
:1034A00095BB00BF10160010341A001070B50C4CFC
:1034B00023687BB90B4D4FF0FF312868FEF7A8F861
:1034C000236823B9261D304600F068FB2660286873
:1034D000FEF7C6F82068BDE8704000F07ABB00BF78
:1034E00010160010341A001070B5044603680C4E14
:1034F0005B68984733689C420BD0251D0023E26827
:10350000A1682846FEF7FEFD21692846FEF71CFE4D
:10351000346023682046BDE870409B68184700BFB0
:103520002C16001037B504460948082520600020F5
:103530006060E0600748A560206106980090201D4B
:10354000FEF77CFD2046FFF7CFFF204603B030BDDD
:10355000C08B000040420F0038B504460D4603689A
:103560005B6898472046FFF7BFFF2946201DFEF7FE
:103570005BFE0546236820469B689847284638BD71
:1035800010B50446006930B1036861695B6A984709
:103590000023236110BD6FF0150010BD30B4044648
:1035A000006903689D6A1346AC460A46616930BCEF
:1035B000604730B4044600690368DD6A1346AC46D0
:1035C0000A46616930BC6047036941691A68184658
:1035D000126B1047036941691A681846526B10470D
:1035E00030B40446006903689D6B1346AC460A4636
:1035F000616930BC6047036941691A681846D26B3B
:103600001047036941691A681846126C104703692C
:1036100041691A681846526C104770B50D46016929
:10362000044641B929680E6A00F114012846B047E2
:1036300018B9256170BD6FF0150070BD074B10B54E
:103640000360036904460BB1FFF79AFF044B204661
:103650002360FFF717FC204610BD00BFDC8B000085
:10366000E48A000010B50446FFF7E8FF204600F0AA
:10367000AEF9204610BD0000002210B504461146E8
:10368000FFF7DCFB034B20462360002323616361CB
:1036900010BD00BFDC8B000001F01ABE01F076BE49
:1036A00001F0CABD01F0B9BD70B505464FF47A749A
:1036B000FEF738FE95FBF4F4002C064602DDFDF71C
:1036C00062F928B9FEF72EFE801BA842FAD370BD1E
:1036D000204600F061FAF5E708B5044901F08AF8E0
:1036E00001F0D8F9BDE80840FFF7DEBF00247449B7
:1036F0004FF47A735843FFF7D7BF0000034B10B560
:1037000003600446FFF79AFF204610BD288C000096
:1037100008B5084B1B685BB907490848084AFFF71A
:103720001DFA4FF41651BDE808400448FFF75AB897
:1037300008BD00BFEC14001002C00920C021001019
:1037400003C0092070470000022810B5044601DCC0
:10375000002010BD01F0C4F9092300220360094BC9
:10376000033C53F8240043F8242040B103681B694C
:103770009847041EECDA01F0B3F9644204604FF09C
:10378000FF3010BD30160010F8B505460E46144641
:1037900001F0A6F90923022D03600FDC124B1B6810
:1037A0000BB9FFF7B5FF35463719104EBD4215D09E
:1037B00015F8011B3046FFF735F9F7E70C4B033DD1
:1037C00053F8250060B103682246DB68314698470C
:1037D000041E03DA01F084F9634203602046F8BD59
:1037E0004FF0FF34FAE700BFEC140010C0210010C6
:1037F0003016001070B504460D46164601F070F9FB
:103800000923022C03600BDC0F4B1B680BB9FFF77D
:103810007FFF0E48FFF7C6F801242870204670BDD0
:103820000B4B033C53F8240058B1036832469B68A5
:1038300029469847041EF1DA01F052F96342036009
:10384000ECE74FF0FF34E9E7EC140010C021001062
:103850003016001010B5044601F042F90923022C7D
:10386000036010DD0A4B033C53F8240040B10368A9
:103870009B699847041E08DA01F032F9644204603B
:103880004FF0FF3010BD012010BD002010BD00BF63
:103890003016001070B504460D46164601F020F9AA
:1038A0000923022C03600BDD084B033C53F8240072
:1038B00040B1036832462946BDE87040DB691847CD
:1038C000002070BD4FF0FF3070BD00BF30160010FB
:1038D000022808B504DC4FF4005300204B6008BDFB
:1038E00001F0FEF8092303604FF0FF3008BD08B572
:1038F000FFF728FFFDF728F908BD704708B5FFF767
:10390000FCFFBDE80840FCF7B5BD00000C4A10B54F
:1039100013681844EFF30881884205D30C22094B41
:103920004FF0FF301A6010BD07490C6824B10749F9
:10393000096821448842F1D21060184610BD00BFCA
:10394000E8000010C82100104C170010501700109C
:10395000094C08B523680546986801F0D3F9236837
:10396000D86801F0CFF9FCF7FDFF08B1FDF728F8A2
:103970000DB1FDF745F8FEE7EC000010012070479F
:1039800008B5FFF7E5FF002102F07BBC08B5FDF7A5
:10399000E9F808BD08B5FDF7EDF808BD10B501F070
:1039A000F1FB044610B90248FDF766F8204610BD49
:1039B0006C8C000008B101F0EDBB704710B50446F7
:1039C000FFF79CFE2046FFF7F5FF204610BDFFF7EE
:1039D000F1BF000010B504460C48FFF715FA4FF090
:1039E000FF3100F0F3F800231946094A52F823008A
:1039F000A04208BF42F823100133402BF6D1034800
:103A0000FFF702FABDE8104000F0E3B830170010ED
:103A1000301600102DE9F34789464E49064602F05C
:103A20007AFD044628B9FFF773FE204602B0BDE8D0
:103A3000F0874949304602F06EFD18B9FFF768FE7D
:103A40000124F2E74549304602F065FD18B9FFF759
:103A50005FFE0224E9E701F043F80923404F0360C9
:103A60004048FFF7D1F94FF0FF3100F0AFF80024E4
:103A7000B84657F82450002D54D00134402CF8D1CA
:103A800001F02EF8182303603648FFF7BDF900F067
:103A9000A0F80DE031466846FFF73EFC6846FFF7A8
:103AA0007BFC40B947F8240001F01AF802230360B8
:103AB0004FF0FF34B9E76846FFF75EFC20B1684677
:103AC000FFF763FC05463FE06846FFF74EFC824681
:103AD00030B901F005F80223036047F824A0E7E7B6
:103AE0001820FFF75BFF0646FFF7C6FD1E4B684632
:103AF0003360FFF72FFC29F48033024651463046ED
:103B0000FFF78BFD071E0BDA00F0EAFF7F4207602C
:103B10001EB1336830465B68984748F82450C7E7C1
:103B2000354611E04FF0FF330E4847F82430FFF7D9
:103B30006BF900F04EF833783A2BABD16A460B495B
:103B4000304602F079FC009D002DE6D048F8245064
:103B500003346AE7918C0000988C0000898C000087
:103B60003016001030170010288C0000248B000045
:103B700038B50446FFF704FD05461CB1236820460E
:103B80005B689847284638BD024B1B6803B118474D
:103B9000704700BF54170010FDF7AABC38B50446A3
:103BA00000F1080510220021284601F02EFB2046D6
:103BB00040F8045FFDF70EFD206010B90248FCF7E5
:103BC0005BFF204638BD00BFA08C00000068FDF7F9
:103BD0001FBD0068FDF744BD10B504460068FDF741
:103BE00085FD204610BD000080F309887047EFF383
:103BF00009807047684680F309883F480078C0070D
:103C000014BF0220032080F314887047DFF8ECC053
:103C1000EFF305831B0618BF6047EFF31483DB0740
:103C200008BF604700DF7047DFF8D4C0EFF30583BB
:103C30001B0618BF6047EFF31483DB0708BF60471C
:103C400000DF7047EFF30980816911F8021CF1B9B8
:103C500090E80F10E047EFF3098C8CE80700294B40
:103C600093E8060091420FD039B12CE9F00FC1F86A
:103C70002CC00CB4FDF702F90CBC1A60D2F82CC0B1
:103C8000BCE8F00F8CF309886FF0020E704710B596
:103C90001D4A1268914209D81C4C54F8214090E802
:103CA0000F10A047EFF3098C8CE80F0010BDFDF753
:103CB00071F8144B93E80600914210D0EFF3098C91
:103CC0002CE9F00FC1F82CC00CB4FDF7D7F80CBCF0
:103CD0001A60D2F82CC0BCE8F00F8CF309886FF0A2
:103CE000020E7047FDF7ACF8FFF7E3BFFDF7A6F84B
:103CF000FDF7A6F8FFF7DDBF568700008D0F000027
:103D0000A70F00007421001000000000FCFFFFFF5F
:103D10000649074A074B9A42BEBF51F8040B42F8C6
:103D2000040BF8E70448804704480047BC8F0000B4
:103D3000C8000010C8020010E52C0000C1070000F8
:103D4000FEE7FEE7FEE7FEE7FEE7FEE7FEE7FEE74B
:103D5000FEE7FEE781F0004102E000BF83F0004390
:103D600030B54FEA41044FEA430594EA050F08BF16
:103D700090EA020F1FBF54EA000C55EA020C7FEADA
:103D8000645C7FEA655C00F0E2804FEA5454D4EB57
:103D90005555B8BF6D420CDD2C4480EA020281EA21
:103DA000030382EA000083EA010180EA020281EA59
:103DB0000303362D88BF30BD11F0004F4FEA0131AB
:103DC0004FF4801C4CEA113102D0404261EB4101BA
:103DD00013F0004F4FEA03334CEA133302D0524240
:103DE00063EB430394EA050F00F0A780A4F10104FC
:103DF000D5F1200E0DDB02FA0EFC22FA05F2801836
:103E000041F1000103FA0EF2801843FA05F359411B
:103E10000EE0A5F120050EF1200E012A03FA0EFC9A
:103E200028BF4CF0020C43FA05F3C01851EBE371C4
:103E300001F0004507D54FF0000EDCF1000C7EEBE1
:103E400000006EEB0101B1F5801F1BD3B1F5001F1F
:103E50000CD349085FEA30004FEA3C0C04F101043E
:103E60004FEA445212F5800F80F09A80BCF1004F67
:103E700008BF5FEA500C50F1000041EB045141EAE9
:103E8000050130BD5FEA4C0C404141EB010111F4EA
:103E9000801FA4F10104E9D191F0000F04BF014695
:103EA0000020B1FA81F308BF2033A3F10B03B3F173
:103EB00020020CDA0C3208DD02F1140CC2F10C0203
:103EC00001FA0CF021FA02F10CE002F11402D8BF61
:103ED000C2F1200C01FA02F120FA0CFCDCBF41EA2D
:103EE0000C019040E41AA2BF01EB0451294330BDFC
:103EF0006FEA04041F3C1CDA0C340EDC04F11404D9
:103F0000C4F1200220FA04F001FA02F340EA0300AF
:103F100021FA04F345EA030130BDC4F10C04C4F1F5
:103F2000200220FA02F001FA04F340EA03002946D5
:103F300030BD21FA04F0294630BD94F0000F83F41F
:103F4000801306BF81F480110134013D4EE77FEA02
:103F5000645C18BF7FEA655C29D094EA050F08BF4E
:103F600090EA020F05D054EA000C04BF194610462F
:103F700030BD91EA030F1EBF0021002030BD5FEA73
:103F8000545C05D14000494128BF41F0004130BD9B
:103F900014F580043CBF01F5801130BD01F00045EF
:103FA00045F0FE4141F470014FF0000030BD7FEA62
:103FB000645C1ABF194610467FEA655C1CBF0B465D
:103FC000024650EA013406BF52EA033591EA030F74
:103FD00041F4002130BD00BF90F0000F04BF00216C
:103FE000704730B54FF4806404F132044FF000059F
:103FF0004FF0000150E700BF90F0000F04BF002118
:10400000704730B54FF4806404F1320410F000457D
:1040100048BF40424FF000013EE700BF42004FEA78
:10402000E2014FEA31014FEA02701FBF12F07F43F5
:1040300093F07F4F81F06051704792F0000F14BFF2
:1040400093F07F4F704730B54FF4607401F0004536
:1040500021F0004120E700BF50EA010208BF70478D
:1040600030B54FF000050AE050EA010208BF704782
:1040700030B511F0004502D5404261EB41014FF4EB
:10408000806404F132045FEA915C3FF4DCAE4FF0EF
:1040900003025FEADC0C18BF03325FEADC0C18BFD6
:1040A000033202EBDC02C2F1200300FA03FC20FA27
:1040B00002F001FA03FE40EA0E0021FA02F1144474
:1040C000C1E600BF70B54FF0FF0C4CF4E06C1CEA89
:1040D00011541DBF1CEA135594EA0C0F95EA0C0FFE
:1040E00000F0DEF82C4481EA030621EA4C5123EA71
:1040F0004C5350EA013518BF52EA033541F48011A0
:1041000043F4801338D0A0FB02CE4FF00005E1FB52
:1041100002E506F00042E0FB03E54FF00006E1FB9C
:1041200003569CF0000F18BF4EF0010EA4F1FF04DF
:10413000B6F5007F64F5407404D25FEA4E0E6D411F
:1041400046EB060642EAC62141EA55514FEAC52030
:1041500040EA5E504FEACE2EB4F1FD0C88BFBCF5AC
:10416000E06F1ED8BEF1004F08BF5FEA500E50F15D
:10417000000041EB045170BD06F0004646EA010123
:1041800040EA020081EA0301B4EB5C04C2BFD4EB55
:104190000C0541EA045170BD41F480114FF0000E4E
:1041A000013C00F3AB8014F1360FDEBF002001F0BC
:1041B000004170BDC4F10004203C35DA0C341BDC36
:1041C00004F11404C4F1200500FA05F320FA04F008
:1041D00001FA05F240EA020001F0004221F000413C
:1041E00010EBD37021FA04F642EB06015EEA430EAF
:1041F00008BF20EAD37070BDC4F10C04C4F12005DF
:1042000000FA04F320FA05F001FA04F240EA020091
:1042100001F0004110EBD37041F100015EEA430E62
:1042200008BF20EAD37070BDC4F1200500FA05F282
:104230004EEA020E20FA04F301FA05F243EA020301
:1042400021FA04F001F0004121FA04F220EA020010
:1042500000EBD3705EEA430E08BF20EAD37070BD56
:1042600094F0000F0FD101F00046400041EB010136
:1042700011F4801F08BF013CF7D041EA060195F018
:10428000000F18BF704703F00046520043EB0303D2
:1042900013F4801F08BF013DF7D043EA06037047BF
:1042A00094EA0C0F0CEA135518BF95EA0C0F0CD0CA
:1042B00050EA410618BF52EA4306D1D181EA030110
:1042C00001F000414FF0000070BD50EA410606BF0A
:1042D0001046194652EA430619D094EA0C0F02D14F
:1042E00050EA013613D195EA0C0F05D152EA033694
:1042F0001CBF104619460AD181EA030101F00041B2
:1043000041F0FE4141F470014FF0000070BD41F0FA
:10431000FE4141F4780170BD70B54FF0FF0C4CF4D4
:10432000E06C1CEA11541DBF1CEA135594EA0C0FF3
:1043300095EA0C0F00F0A7F8A4EB050481EA030E40
:1043400052EA03354FEA013100F088804FEA033327
:104350004FF0805545EA131343EA12634FEA0222F5
:1043600045EA111545EA10654FEA00260EF00041B6
:104370009D4208BF964244F1FD0404F5407402D208
:104380005B084FEA3202B61A65EB03055B084FEA99
:1043900032024FF480104FF4002CB6EB020E75EB96
:1043A000030E22BFB61A754640EA0C005B084FEABE
:1043B0003202B6EB020E75EB030E22BFB61A75463B
:1043C00040EA5C005B084FEA3202B6EB020E75EB86
:1043D000030E22BFB61A754640EA9C005B084FEAFE
:1043E0003202B6EB020E75EB030E22BFB61A75460B
:1043F00040EADC0055EA060E18D04FEA051545EAFA
:1044000016754FEA06164FEAC30343EA52734FEAA2
:10441000C2025FEA1C1CC0D111F4801F0BD141EA1B
:1044200000014FF000004FF0004CB6E711F4801F80
:1044300004BF01430020B4F1FD0C88BFBCF5E06F60
:104440003FF6AFAEB5EB030C04BFB6EB020C5FEA70
:10445000500C50F1000041EB045170BD0EF0004EC5
:104460004EEA113114EB5C04C2BFD4EB0C0541EAF7
:10447000045170BD41F480114FF0000E013C90E6F4
:1044800045EA060E8DE60CEA135594EA0C0F08BFB8
:1044900095EA0C0F3FF43BAF94EA0C0F0AD150EAB7
:1044A00001347FF434AF95EA0C0F7FF425AF10464A
:1044B00019462CE795EA0C0F06D152EA03353FF472
:1044C000FDAE1046194622E750EA410618BF52EAEF
:1044D00043067FF4C5AE50EA41047FF40DAF52EAC3
:1044E00043057FF4EBAE12E74FEA410212F50012EA
:1044F00015D211D56FF47873B3EB625212D94FEA2B
:10450000C12343F0004343EA505311F0004F23FA14
:1045100002F018BF404270474FF00000704750EA69
:10452000013005D111F0004008BF6FF00040704726
:104530004FF00000704700BF4FEA4102B2F1E04384
:1045400024BFB3F5001CDCF1FE5C0DD901F0004C7A
:104550004FEAC0024CEA5070B2F1004F40EB8300CA
:1045600008BF20F00100704711F0804F21D113F1F6
:104570003872BCBF01F00040704741F480114FEA2F
:104580005252C2F11802C2F1200C10FA0CF320FAB8
:1045900002F018BF40F001004FEAC1234FEAD323D5
:1045A00003FA0CFC40EA0C0023FA02F34FEA43033F
:1045B000CCE77FEA625307D150EA01331EBF4FF0C8
:1045C000FE4040F44000704701F0004040F0FE40E3
:1045D00040F40000704700BF80F0004002E000BFE0
:1045E00081F0004142001FBF5FEA410392EA030FDE
:1045F0007FEA226C7FEA236C6AD04FEA1262D2EB28
:104600001363C1BFD218414048404140B8BF5B422C
:10461000192B88BF704710F0004F40F4000020F0C5
:104620007F4018BF404211F0004F41F4000121F0DB
:104630007F4118BF494292EA030F3FD0A2F1010225
:1046400041FA03FC10EB0C00C3F1200301FA03F163
:1046500000F0004302D5494260EB4000B0F5000F86
:1046600013D3B0F1807F06D340084FEA310102F145
:104670000102FE2A51D2B1F1004F40EBC25008BFF7
:1046800020F0010040EA03007047490040EB0000C1
:1046900010F4000FA2F10102EDD1B0FA80FCACF1F0
:1046A000080CB2EB0C0200FA0CF0AABF00EBC250EF
:1046B00052421843BCBFD0401843704792F0000FDD
:1046C00081F4000106BF80F400000132013BB5E730
:1046D0004FEA41037FEA226C18BF7FEA236C21D0A6
:1046E00092EA030F04D092F0000F08BF084670470B
:1046F00090EA010F1CBF0020704712F07F4F04D1D9
:10470000400028BF40F00040704712F100723CBFEB
:1047100000F50000704700F0004343F0FE4040F415
:10472000000070477FEA226216BF08467FEA2363D3
:104730000146420206BF5FEA412390EA010F40F4BE
:10474000800070474FF0000304E000BF10F000430A
:1047500048BF40425FEA000C08BF704743F09643F1
:1047600001464FF000001CE050EA010208BF70470C
:104770004FF000030AE000BF50EA010208BF704793
:1047800011F0004302D5404261EB41015FEA010CA8
:1047900002BF84460146002043F0B64308BFA3F1A0
:1047A0008053A3F50003BCFA8CF2083AA3EBC25382
:1047B00010DB01FA02FC634400FA02FCC2F12002A1
:1047C000BCF1004F20FA02F243EB020008BF20F0D8
:1047D0000100704702F1200201FA02FCC2F120023E
:1047E00050EA4C0021FA02F243EB020008BF20EA33
:1047F000DC7070474FF0FF0C1CEAD0521EBF1CEA61
:10480000D15392EA0C0F93EA0C0F6FD01A4480EA4E
:10481000010C400218BF5FEA41211ED04FF0006337
:1048200043EA501043EA5111A0FB01310CF0004063
:10483000B1F5000F3EBF490041EAD3715B0040EA89
:10484000010062F17F02FD2A1DD8B3F1004F40EB59
:10485000C25008BF20F00100704790F0000F0CF02C
:10486000004C08BF49024CEA502040EA51207F3AF0
:10487000C2BFD2F1FF0340EAC250704740F40000CB
:104880004FF00003013A5DDC12F1190FDCBF00F0BC
:1048900000407047C2F10002410021FA02F1C2F16A
:1048A000200200FA02FC5FEA310040F1000053EA06
:1048B0004C0308BF20EADC70704792F0000F00F054
:1048C000004C02BF400010F4000F013AF9D040EA5A
:1048D0000C0093F0000F01F0004C02BF490011F4EE
:1048E000000F013BF9D041EA0C018FE70CEAD153EC
:1048F00092EA0C0F18BF93EA0C0F0AD030F0004C6C
:1049000018BF31F0004CD8D180EA010000F000401F
:10491000704790F0000F17BF90F0004F084691F0DD
:10492000000F91F0004F14D092EA0C0F01D1420217
:104930000FD193EA0C0F03D14B0218BF084608D1E0
:1049400080EA010000F0004040F0FE4040F400002A
:10495000704740F0FE4040F4400070474FF0FF0CBD
:104960001CEAD0521EBF1CEAD15392EA0C0F93EA04
:104970000C0F69D0A2EB030280EA010C49024FEA56
:10498000402037D04FF0805343EA111143EA10130F
:104990000CF000408B4238BF5B0042F17D024FF4C7
:1049A000000C8B4224BF5B1A40EA0C00B3EB510FA2
:1049B00024BFA3EB510340EA5C00B3EB910F24BF8B
:1049C000A3EB910340EA9C00B3EBD10F24BFA3EB10
:1049D000D10340EADC001B0118BF5FEA1C1CE0D1D8
:1049E000FD2A3FF650AF8B4240EBC25008BF20F08B
:1049F000010070470CF0004C4CEA50207F32C2BFDF
:104A0000D2F1FF0340EAC250704740F400004FF07B
:104A10000003013A37E792F0000F00F0004C02BFAC
:104A2000400010F4000F013AF9D040EA0C0093F076
:104A3000000F01F0004C02BF490011F4000F013BD0
:104A4000F9D041EA0C0195E70CEAD15392EA0C0F38
:104A500008D142027FF47DAF93EA0C0F7FF470AF70
:104A6000084676E793EA0C0F04D14B023FF44CAFB3
:104A700008466EE730F0004C18BF31F0004CCAD148
:104A800030F000427FF45CAF31F000437FF43CAF84
:104A90005FE700BF4FEA4002B2F1FE4F0FD34FF085
:104AA0009E03B3EB12620DD94FEA002343F000439B
:104AB00010F0004F23FA02F018BF404270474FF049
:104AC0000000704712F1610F01D1420205D110F0D0
:104AD000004008BF6FF0004070474FF00000704783
:104AE000014B1868704700BFEC00001070B5054618
:104AF0000C4611B90026304670BD18B183690BB958
:104B000000F052F91F4B9C4232D16C68B4F90C3062
:104B1000002BEFD02146284600F042F8236B0646D2
:104B200033B1216A284698470028B8BF4FF0FF36B6
:104B3000A3891B0603D521692846FEF7B1FD616BE9
:104B400041B104F14403994202D02846FEF7A8FD82
:104B500000236363A16C21B12846FEF7A1FD002369
:104B6000A36400F08DF90023A38100F08AF9C2E765
:104B7000054B9C4201D1AC68C8E7044B9C4208BF7E
:104B8000EC68C3E7E88C0000088D0000C88C0000CA
:104B9000024B01461868FFF7A9BF00BFEC000010E8
:104BA0008A892DE9F041054610070C465AD44B6816
:104BB000002B05DC0B6C002B02DC0020BDE8F08133
:104BC000E66A002EF9D0002312F480522F682B6081
:104BD00033D0606DA3895A0705D56368C01A636B2B
:104BE0000BB1236CC01A00230246E66A216A2846EC
:104BF000B047431CA38906D129681D294BD82B4AED
:104C0000CA40D60747D5002262602269D9042260D3
:104C100004D5421C01D12B6803B96065616B2F601C
:104C20000029CAD004F14403994202D02846FEF775
:104C300037FD00206063BDE8F081216A012328462A
:104C4000B047411CC6D12B68002BC3D01D2B01D00F
:104C5000162B01D12F60B0E7A38943F04003A38155
:104C6000BDE8F0810F69002FA7D0930718BF00237C
:104C70000E6808BF4B69A6EB07080F608B60B8F1A0
:104C8000000F9ADD43463A46216A2846A66AB04795
:104C9000002807DCA38943F04003A3814FF0FF30D5
:104CA000BDE8F0810744A8EB0008E8E701004020D8
:104CB00038B50B6905460C46DBB118B183690BB9F1
:104CC00000F072F80C4B9C4209D16C68B4F90C30BE
:104CD0007BB121462846BDE83840FFF761BF074B4E
:104CE0009C4201D1AC68F1E7054B9C4208BFEC68DF
:104CF000ECE7002038BD00BFE88C0000088D000004
:104D0000C88C0000014620B9044B0549186800F022
:104D100093B9044B1868FFF7CBBF00BF288D000084
:104D2000B14C0000EC000010014900F085B900BF53
:104D3000B14C0000002310B504460360436083605B
:104D400081814366C2810361436183611946082200
:104D50005C3000F05AFA054B24626362044BA36294
:104D6000044BE362044B236310BD00BF8D6400005D
:104D7000B3640000EB6400000F65000070B56825A7
:104D80004A1E55430E4605F17401FEF785FC0446A4
:104D900040B1002180E842000C30A06005F16802BB
:104DA00000F033FA204670BD836910B5044633BB6A
:104DB0008364C3640365124B124A1B688262984283
:104DC00004BF0123836100F01FF86060204600F0FB
:104DD0001BF8A060204600F017F80022E0600421D4
:104DE0006068FFF7A7FF01220921A068FFF7A2FF73
:104DF00002221221E068FFF79DFF0123A36110BD8D
:104E0000288D0000294D0000F8B51C4B07461E6890
:104E1000B36913B93046FFF7C7FF4836B468736803
:104E2000013B03D5336833B13668F7E7B4F90C506A
:104E30006DB16834F4E704213846FFF79FFF306016
:104E40000028F1D10C2304463B602046F8BD4FF604
:104E5000FF73E38101236566A3812560A56065601A
:104E600025616561A5610822294604F15C0000F016
:104E7000CCF96563A563A564E564E6E7288D0000C9
:104E800070477047F7B50F46114601AA054602F074
:104E900007FC064618B90024204603B0F0BD28469A
:104EA000FFF7B2FF04460028F5D04FF4DB73019AF8
:104EB0003946284601F094F9002806DA0025FFF764
:104EC000DFFFA581FFF7DDFFE5E70A4BE0816362C5
:104ED000094BA681A362094B2462E362084B23635A
:104EE000F305D9D5022300222146284600F012F806
:104EF000D2E700BF8D640000B3640000EB640000E3
:104F00000F650000024B0A4601461868FFF7BABF5A
:104F1000EC00001000F000B82DE9F8430C46914673
:104F20001E46054618B183690BB9FFF73DFF3F4B9D
:104F30009C4212D16C68A38903F48473B3F5847F17
:104F400003D121462846FFF7B3FED4F82C80B8F1F0
:104F5000000F0CD11D232B6057E0354B9C4201D133
:104F6000AC68E8E7334B9C4208BFEC68E3E7012EEE
:104F700030D0022E01D0002E55D123691BB9214615
:104F8000284600F0BFF821462846FFF791FE074665
:104F900000283AD133464A46216A2846C0470130A4
:104FA00033D0616B41B104F14403994202D02846E9
:104FB000FEF776FB002363630021236961602360B1
:104FC000A389082223F40263A38104F15C0000F0AA
:104FD0001CF91CE021462846FFF76AFEA28912F45C
:104FE00080520CD0606DA3895A0713D56368C01A2C
:104FF000636B0BB1236CC01A81440026BDE7216AA4
:1050000033462846C047411CEDD14FF0FF373846A4
:10501000BDE8F8831B07EFD52368002BECD022698D
:105020009B1A1844E8E7162395E700BFE88C0000B8
:10503000088D0000C88C00002DE9F84380468946A1
:10504000002600F1480414B93046BDE8F883A5688D
:105050006768013F01D52468F5E7AB89012B07D9C3
:10506000B5F90E30013303D029464046C847064300
:105070006835EEE770B500250C4E0D4CA41BA4104E
:10508000A54209D103F0CAFA00250A4E0A4CA41B16
:10509000A410A54205D170BD56F8253098470135BA
:1050A000EEE756F8253098470135F2E7BC020010CC
:1050B000BC020010BC020010C402001070B50E4605
:1050C000B1F90E1090B0002914461D4607DA0023EE
:1050D0002B60B3891A0610D44FF480630EE001AA46
:1050E00002F014FB0028F2DB029A02F47042A2F5EF
:1050F00000535A425A412A60EEE7402300202360C1
:1051000010B070BD8B8973B59D0706460C4607D558
:1051100004F14703236023610123636102B070BD82
:1051200001AB6A46FFF7CAFF009905463046FEF715
:10513000B3FA48B9B4F90C309A05EFD423F003035D
:1051400043F00203A381E3E70D4BB362A389206020
:1051500043F08003A381009B20616361019B5BB1ED
:10516000B4F90E10304602F0E3FA28B1A38923F017
:10517000030343F00103A381A3891D43A581CDE768
:10518000294D0000024B01461868FEF785BA00BFA2
:10519000EC000010024B01461868FEF781BA00BF10
:1051A000EC00001010B5C9B202449042034601D190
:1051B000002010BD1C7801308C42F6D1184610BD7D
:1051C00010B5431E0A44914200D110BD11F8014BA5
:1051D00003F8014FF7E7884210B501EB020303D84B
:1051E000421E99420CD110BD9842F9D28118D21AB0
:1051F000D34200D110BD13F8014D01F8014DF7E77E
:1052000011F8014B02F8014FEBE7034602449342C9
:1052100000D1704703F8011BF9E738B502FB01F430
:105220002146FEF739FA054618B122460021FFF75C
:10523000ECFF284638BD000038B50546002943D0AC
:1052400051F8043C0C1F002BB8BFE418FEF79EFB7E
:105250001E4A1368104633B9636014602846BDE8DF
:105260003840FEF797BBA3420BD9216862189342DE
:1052700001BF1A685B685218226063600460EDE742
:1052800013465A680AB1A242FAD919685818A042BE
:105290000BD120680144581882421960DED1106891
:1052A0005268014419605A60D8E702D90C232B6078
:1052B000D4E7206821188A4201BF11685268091892
:1052C000216062605C60C9E738BD00BF58170010FC
:1052D00070B5CD1C25F0030508350C2D38BF0C2505
:1052E000002D064601DBA94203D90C2333600020C0
:1052F00070BDFEF74BFB234A1468214691B9224C3E
:1053000023681BB9304600F07DFF206029463046F7
:1053100000F078FF431C26D10C2330463360FEF7A3
:1053200039FBE4E70B685B1B1AD40B2B0FD90B601E
:10533000CC18CD503046FEF72DFB04F10B00231D99
:1053400020F00700C31A1BD05A42E25070BD8C42B5
:105350000BBF63684B681360636018BF0C46E9E7D6
:105360000C464968CAE7C41C24F00304A04205D0D7
:10537000211A304600F046FF0130CDD02560D9E734
:1053800070BD00BF581700105C170010F8B5074635
:1053900014460E4621B91146BDE8F840FEF77CB927
:1053A00022B9FEF77DF925462846F8BD02F0E5FC56
:1053B00084420FD921463846FEF76EF9054600288B
:1053C000F2D031462246FFF7FBFE31463846FEF763
:1053D00067F9E9E73546E7E7936810B4013B002B2E
:1053E000936008DA9469A34202DBCBB20A2B02D1A4
:1053F00010BC01F011BA1368581C10601970C8B2C3
:1054000010BC7047F8B506460F461446D518AC4296
:1054100001D1002007E03A4614F8011B3046FFF79F
:10542000DBFF431CF3D1F8BD2DE9F04F9DB00C46D6
:1054300017460393064618B183690BB9FFF7B4FC0E
:105440007C4B9C4257D17468A38918075DD52369AA
:10545000002B5AD00023099320238DF829303023C4
:105460004FF0010B8DF82A30B846454615F8013B40
:10547000002B55D1B8EB070A0BD053463A462146CC
:105480003046FFF7BFFF013000F0C480099B534452
:10549000099398F80030002B00F0BC8000234FF0F7
:1054A000FF3204930793059206938DF853301A93B5
:1054B000052229786048FFF775FE05F10108049B75
:1054C000002831D1D90644BF20228DF853201A0775
:1054D00044BF2B228DF853202A782A2A2CD0002171
:1054E0000A20079AA84698F800300135303B092B6E
:1054F0006DD971B326E0514B9C4201D1B468A3E74A
:105500004F4B9C4208BFF4689EE72146304601F0AD
:10551000E7F900289ED04FF0FF301DB0BDE8F08FB6
:10552000252BA7D0A846A0E7434A4546801A0BFA88
:1055300000F018430490BBE7039A111D1268039111
:10554000002A01DB079204E0524243F00203079273
:10555000049398F800302E2B10D198F8013008F100
:1055600001012A2B37D1039B08F102081A1D1B6881
:105570000392002BB8BF4FF0FF330593314D032248
:1055800098F800102846FFF70DFE40B14023401B5D
:1055900003FA00F0049B08F101080343049398F810
:1055A00000100622284808F101078DF82810FFF79F
:1055B000F9FD002834D0254B03BB039B073323F0B0
:1055C000070308330393099B4B4409934CE700FB03
:1055D0000232012186E700230A25184605938846F2
:1055E00098F800200131303A092A03D9002BC5D0A0
:1055F0000590C3E705FB00200123F0E703AB009310
:105600002246134B04A9304600F0C0F8B0F1FF3F2A
:105610008146D8D1A3895B063FF57DAF09987CE729
:1056200003AB009322460A4B04A9304600F05EFB10
:10563000ECE700BFE88C00002C8D0000088D000016
:10564000C88C0000328D0000368D00008D570000A0
:105650000554000013460A46014602480068FFF759
:10566000E3BE00BFEC000010002B2DE9F0471E4602
:10567000BBBF03F100431E4600232D2388B0149FB7
:10568000129927F02007462F1446109DDDF84CA0F4
:105690000B7004D0452F00D10135022300E0032315
:1056A00007AA049206AA03928DE8280422463346EC
:1056B00001F022FA472F804602D1119BDB0726D545
:1056C000462F08EB050911D198F80030302B0AD18C
:1056D000002200232046314602F058FF18B9C5F1D8
:1056E0000105CAF80050DAF800309944002200237E
:1056F0002046314602F04AFF38B93022079B9945CF
:1057000005D9591C07911A70F8E7CDF81C9040464E
:10571000079B159AA3EB0803136008B0BDE8F08758
:105720000346F7B5002903F8022BB6BF2D222B2222
:1057300049420929427021DD0DF1070217460A2668
:1057400091FBF6F506FB1511092D01F1300102F868
:10575000011C02F1FF34294609DC3031023A04F819
:10576000011CBA421C4604D3201A03B0F0BD2246E5
:10577000E6E712F8011B03F8011BF2E730221C4692
:10578000114404F8022B5970EEE700002DE9F04FA8
:1057900091B00C461A9F93461E46054601F0EAFF5B
:1057A00003681846099300F0C0FE00230E933B687F
:1057B0000A90073323F0070303F1080294F81880D6
:1057C000D4F800A03A60D3E90023C4E91223D4F846
:1057D0004C90A76C29F000430B934FF0FF32A64B7F
:1057E00038460B9902F004FF002840F0F7814FF093
:1057F000FF32A14B38460B9902F0DCFE002840F046
:10580000ED81002200233846494602F0C9FE10B15E
:105810002D2384F84330994B994FB8F1470F98BF27
:105820001F4603234FF0000923612AF0040323607D
:1058300000965B460FAA2146284600F0DFF90130AA
:1058400040F09A804FF0FF3011B0BDE8F08F6268F1
:105850000EA8531C0DF1340E4AF4806341D1062288
:10586000626000212360019363680DF133020590AB
:10587000029200933A464B460691CDF81080CDF83F
:105880000CE02846FFF7F0FE08F0DF03472B074641
:1058900009D10D9BD81C02DB6268934259DDA8F147
:1058A00002085FFA88F8B8F1650F0D9936D801390A
:1058B000424604F150000D91FFF732FF0E9A8146E7
:1058C0008318012A236102DC2268D10701D5013344
:1058D00023619DF83330002BAAD02D2384F8433068
:1058E000A6E7B8F1670F02D0B8F1470FB9D19AB166
:1058F000002106910DF133018DE80C002360059025
:105900003A46CDF81080CDF80CE002914B4628467F
:10591000FFF7AAFE0746BCE70122A1E7B8F1660F30
:1059200019D1002963680CDD216113B92268D207FF
:1059300002D501330B4423610D9B4FF00009A36591
:10594000C7E713B92268D00701D50233F3E7012373
:10595000F1E74FF067080D9B0E9A934205DB226832
:105960002361D107E8D50133E5E7002BCCBF012344
:10597000C3F102031344DEE723685A0507D4236901
:105980003A4659462846B04701302AD15AE7B8F17D
:10599000650F40F2DC80D4E912010022002302F0FE
:1059A000F5FD002839D00123364A59462846B0472C
:1059B00001303FF447AF0E9B0D9A9A4202DB2368F9
:1059C000D8070ED50A9B099A59462846B047013098
:1059D0003FF438AF002704F11A080E9B013B9F42A9
:1059E00011DB23689F0708D5002704F11908E36835
:1059F0000F9A9B1A9F42C0F2E780E0680F9B984283
:105A0000B8BF184620E70123424659462846B0470A
:105A100001303FF417AF0137DFE70D9B002B33DC7C
:105A20000123184A59462846B04701303FF40AAFCF
:105A30000D9B23B90E9B13B92368D907D1D50A9BB7
:105A4000099A59462846B04701303FF4FBAE4FF063
:105A5000000804F11A090D9B5B42984501DB0E9B7F
:105A60008EE701234A4659462846B04701303FF4A5
:105A7000E9AE08F10108EEE7FFFFEF7F3D8D000082
:105A8000418D0000928D00000E9AA36D9A42A8BF2E
:105A90001A46002A904636DC4FF0000A04F11A0339
:105AA00028EAE8780B93D4F85890A9EB08039A45B4
:105AB00031DB0E9B0D9A9A4238DB2368DA0735D426
:105AC0000E9B0D99A3EB0902A3EB01089045A8BF1B
:105AD0009046B8F1000F31DC002728EAE87804F19D
